S00E000052656D6F74652E73726563AA
S11300000C942A000C9434000C9434000C943400A6
S11300100C9434000C9434000C9434000C9434008C
S11300200C9434000C9434000C9434000C9434007C
S11300300C9434000C9434000C9434000C9434006C
S11300400C9434000C9434000C9434000C9434005C
S11300500C94340011241FBECFE5D8E0DEBFCDBF21
S11300600E9482000C9494000C94000083E389B9EC
S113007010BC86E880BD88E08AB908955D9BFECFF8
S11300808CB90895CF93DF93D82FC62F8AEA0E94A4
S11300903E008D2F0E943E008C2F0E943E008D2F2B
S11300A08C0F0E943E00DF91CF91089560E384E4B9
S11300B00E94420087EA91E60197F1F700C0000030
S11300C0089564E384E40E94420087EA91E601977C
S11300D0F1F700C00000089562E384E40E94420046
S11300E087EA91E60197F1F700C00000089566E3FE
S11300F084E40E94420087EA91E60197F1F700C088
S11301000000089517BA0E943600C6B3C0FD0E94CD
S11301106100C1FD0E946C00C2FD0E945600C3FF35
S10F0120F4CF0E947700F1CFF894FFCFD9
S9030000FC
