:100000000C942A000C94FD020C942B030C944700D2
:100010000C9447000C9447000C9447000C94470044
:100020000C9447000C9447000C9447000C94470034
:100030000C9447000C94A3090C9447000C944700BF
:100040000C94AB020C9447000C9447000C944700AE
:100050000C94470011241FBECFE5D8E0DEBFCDBF12
:1000600012E0A0E6B0E0EEEFF8E102C005900D92DC
:10007000A03EB107D9F723E0A0EEB2E001C01D9287
:10008000A432B207E1F70E94F9090C947D0C0C949C
:100090000000672B09F09FC0009711F4D8980895CD
:1000A0008130910511F4D99808958230910511F4A9
:1000B000DA9808958330910511F4DB98089584301F
:1000C000910511F4DC9808958530910511F4DD98BF
:1000D00008958630910511F4DE98089587309105D2
:1000E00011F4DF9808958A30910511F4C0980895AD
:1000F0008B30910511F4C19808958C30910511F45D
:10010000C29808958D30910511F4C39808958E30EA
:10011000910511F4C49808958F30910511F4C59894
:1001200008958031910511F4C698089581319105A3
:1001300011F4C79808958431910511F4A898089591
:100140008531910511F4A99808958631910511F42E
:10015000AA9808958731910511F4AB9808958831D4
:10016000910511F4AC9808958931910511F4AD9879
:1001700008958A31910511F4AE9808958B31910557
:1001800011F4AF9808958E31910511F49098089567
:100190008F31910511F4919808958032910511F4F1
:1001A000929808958132910511F4939808958232BE
:1001B000910511F4949808958332910511F495985E
:1001C00008958432910511F496980895859709F061
:1001D0009FC097980895009711F4D89A0895813098
:1001E000910511F4D99A08958230910511F4DA9AA3
:1001F00008958330910511F4DB9A089584309105B8
:1002000011F4DC9A08958530910511F4DD9A089572
:100210008630910511F4DE9A08958730910511F426
:10022000DF9A08958A30910511F4C09A08958B30B1
:10023000910511F4C19A08958C30910511F4C29A78
:1002400008958D30910511F4C39A08958E3091056B
:1002500011F4C49A08958F30910511F4C59A089548
:100260008031910511F4C69A08958131910511F4F8
:10027000C79A08958431910511F4A89A089585319B
:10028000910511F4A99A08958631910511F4AA9A5D
:1002900008958731910511F4AB9A0895883191053D
:1002A00011F4AC9A08958931910511F4AD9A08952D
:1002B0008A31910511F4AE9A08958B31910511F4AC
:1002C000AF9A08958E31910511F4909A08958F3167
:1002D000910511F4919A08958032910511F4929A42
:1002E00008958132910511F4939A0895823291050F
:1002F00011F4949A08958332910511F4959A089512
:100300008432910511F4969A0895859709F4979A85
:100310000895CF93C82F80FF07C061E070E082E2AC
:1003200090E00E94490006C060E070E082E290E048
:100330000E944900C1FF07C061E070E083E290E0E5
:100340000E94490006C060E070E083E290E00E94F5
:100350004900C2FF07C061E070E084E290E00E94C3
:10036000490006C060E070E084E290E00E9449002D
:10037000C3FF07C061E070E085E290E00E944900A1
:1003800006C060E070E085E290E00E944900CF91F5
:100390000895CF93C82F60E070E08FE090E00E9456
:1003A00049008C2F0E94890161E070E08EE090E0AE
:1003B0000E94490089EF90E00197F1F700C000002A
:1003C00060E070E08EE090E00E94490089EF90E0EC
:1003D0000197F1F700C00000CF91089580E00E94DE
:1003E000C90181E00E94C9010895CF93C62F8130D1
:1003F00059F480E8860F82958F700E94C9018C2F76
:100400008F700E94C9010CC0823051F480EC860FBD
:1004100082958F700E94C9018C2F8F700E94C90134
:10042000CF91089580E00E94890187E893E10197C8
:10043000F1F700C0000083E00E94C90181EE94E062
:100440000197F1F700C0000083E00E94C9018DEB25
:100450009AE00197F1F700C0000083E00E94C90113
:1004600082E00E94C90182E00E94C90188E00E94E6
:10047000C90180E00E94C9018CE00E94C90180E0AE
:100480000E94C90186E00E94C9010895CF93C82F38
:1004900061E070E08FE090E00E9449008C2F82952F
:1004A0008F700E94890161E070E08EE090E00E9410
:1004B000490089EF90E00197F1F700C0000060E08B
:1004C00070E08EE090E00E94490089EF90E0019793
:1004D000F1F700C000008C2F8F700E94890161E04D
:1004E00070E08EE090E00E94490089EF90E0019773
:1004F000F1F700C0000060E070E08EE090E00E9444
:10050000490089EF90E00197F1F700C00000CF911A
:100510000895CF93DF93EC018881882331F02196F1
:100520000E94460289918111FBCFDF91CF910895FE
:100530008091600090916100892B51F481E090E0FE
:100540002091F2023091F302232B21F080E00895F4
:1005500080E090E008951F920F920FB60F92112441
:100560002F933F934F935F936F937F938F939F93BB
:10057000AF93BF93EF93FF9364B16093180385B17A
:100580008093230362956695669563706093180364
:1005900070E094E0899F600D711D11247093130326
:1005A00060931203072E000C880B990B0E94330BEB
:1005B00020E030E040EA50E40E94C40B20E030E04C
:1005C00040E85AE30E94C40B609314037093150330
:1005D0008093160390931703FF91EF91BF91AF9112
:1005E0009F918F917F916F915F914F913F912F914B
:1005F0000F900FBE0F901F9018951F920F920FB67D
:100600000F9211248F939F938091F6029091F7029D
:100610008130910571F41EBC8CB59DB59093FB02A1
:100620008093FA021DBC1CBC1092F7021092F602D5
:1006300002C0892B49F48EB581608EBD81E090E0C7
:100640009093F7028093F6029F918F910F900FBEC7
:100650000F901F9018951F920F920FB60F921124B2
:100660008F939F938091F4029091F50281309105D0
:1006700071F41EBC8CB59DB59093F9028093F8027D
:100680001DBC1CBC1092F5021092F40202C0892B12
:1006900049F48EB581608EBD81E090E09093F502C3
:1006A0008093F4029F918F910F900FBE0F901F9037
:1006B00018958091600090916100892B09F478C0B1
:1006C00080910C0390910D03892B09F469C08091EE
:1006D000080390910903892B09F06AC080910A03ED
:1006E00090910B03892B09F063C00E94EE0160E03A
:1006F00081E00E94F50186E191E00E94890260E0BC
:1007000082E00E94F50185E291E00E948902AF98A3
:1007100010920D0310920C0343C080910A03909134
:100720000B03892B09F444C00E94EE0160E081E0D4
:100730000E94F5018CE291E00E94890280910803F9
:1007400090910903019729F482E391E00E948902C4
:1007500004C083E291E00E94890284E391E00E9458
:10076000890280910A0390910B03019729F48CE38D
:1007700091E00E94890204C083E291E00E94890214
:1007800060E082E00E94F5018EE391E00E94890220
:1007900081E090E090930D0380930C03AF9A08954D
:1007A0008091080390910903892B09F4B6CFBCCF3F
:1007B00008958F929F92AF92BF92CF92DF92EF9265
:1007C000FF92CF93DF9380E287B98AE886B9369AA1
:1007D0003699FECF20E030E048EC52E460911403FB
:1007E0007091150380911603909117030E94C40B1A
:1007F0004B015C010E94FB0AEB01072E000C880BE9
:10080000990B0E94330B9B01AC01C501B4010E94FE
:100810001C0A20E030E040E05FE30E94BF0B1816A6
:100820000CF421968091600090916100892B09F46D
:1008300064C080910E0390910F03892B09F05BC077
:1008400069970CF45AC00E94EE0160E081E00E94BA
:10085000F50184E491E00E948902AE9A81E090E083
:1008600090930F0380930E039093090380930803E2
:100870008091EE029091EF0201969093EF028093A7
:10088000EE028091F0029091F10201969093F102B4
:100890008093F00260E082E00E94F50185E591E03E
:1008A0000E94890283EC99E00197F1F700C00000F3
:1008B00024C00E94EE0160E081E00E94F5018DE518
:1008C00091E00E948902AE9810920F0310920E03DD
:1008D000109209031092080360E082E00E94F50183
:1008E0008DE691E00E94890283EC99E00197F1F78F
:1008F00000C0000002C06997E4F2DF91CF91FF9041
:10090000EF90DF90CF90BF90AF909F908F90089521
:100910008F929F92AF92BF92CF92DF92EF92FF920F
:10092000CF93DF9382E287B98AE886B9369A3699FF
:10093000FECF20E030E048EC52E460911403709167
:10094000150380911603909117030E94C40B20E0B9
:1009500030E048E952E40E941C0A21E73DE34AE402
:1009600050E40E94890A4B015C010E94FB0AEB01E2
:10097000072E000C880B990B0E94330B9B01AC01D6
:10098000C501B4010E941C0A20E030E040E05FE3B2
:100990000E94BF0B18160CF4219680916000909174
:1009A0006100892BD1F06F97639768F080910A03FB
:1009B00090910B03892B89F481E090E090930B03D5
:1009C00080930A030AC080910A0390910B03892B3C
:1009D00021F010920B0310920A03DF91CF91FF9048
:1009E000EF90DF90CF90BF90AF909F908F90089541
:1009F0008F929F92AF92BF92CF92DF92EF92FF922F
:100A0000CF93DF9381E287B98AE886B9369A36991F
:100A1000FECF20E030E048EC52E460911403709186
:100A2000150380911603909117030E94C40B4B018C
:100A30005C010E94FB0AEB01072E000C880B990B4E
:100A40000E94330B9B01AC01C501B4010E941C0A3A
:100A500020E030E040E05FE30E94BF0B18160CF48A
:100A600021968091100390911103892B09F04EC0BB
:100A7000CD35D1050CF04DC08091600090916100A2
:100A8000892B09F446C00E94EE0160E081E00E94DB
:100A9000F50185E791E00E948902AD9AAC9A8091B8
:100AA000EC029091ED0201969093ED028093EC029E
:100AB00060E082E00E94F50180E891E00E948902F6
:100AC00081E090E0909311038093100322C0809105
:100AD000600090916100892BE1F00E94EE0160E0DE
:100AE00081E00E94F5018AE891E00E948902AD98B8
:100AF000AC9860E082E00E94F50183E991E00E94F9
:100B00008902109211031092100303C0CD35D10554
:100B1000F4F6DF91CF91FF90EF90DF90CF90BF90F0
:100B2000AF909F908F9008958BB780648BBF85B7EF
:100B3000816085BF7894C39A28E02A95F1F7000078
:100B4000C39887EA91E60197F1F700C00000809111
:100B5000FA029091FB0269E370E00E94550C8091CB
:100B6000000390910103009709F041C065367105BB
:100B70000CF073C08091600090916100892B09F4A2
:100B80006CC00E94EE0181E090E09093010380939D
:100B90000003AB9AAA9AA99A60E00E94F5018EE937
:100BA00091E00E94890260E082E00E94F50187EAFC
:100BB00091E00E9489029FE926E881E0915020405F
:100BC0008040E1F700C000008091EA029091EB02C2
:100BD00001969093EB028093EA02A99860E082E08C
:100BE0000E94F50182EB91E00E948902089501972D
:100BF000A1F5653671058CF18091600090916100DE
:100C0000892B59F10E94EE0110920103109200030A
:100C1000AB9AAA98A99A60E081E00E94F5018DEB59
:100C200091E00E94890260E082E00E94F50187EC79
:100C300091E00E9489029FE926E881E091502040DE
:100C40008040E1F700C00000A99860E082E00E94C7
:100C5000F50182ED91E00E94890208958BB78068CA
:100C60008BBF85B7846085BF7894919A28E02A95D8
:100C7000F1F70000919887EA91E60197F1F700C03B
:100C800000008091F8029091F90269E370E00E94FF
:100C9000550C8091FE029091FF02009709F041C02F
:100CA000653671050CF073C0809160009091610011
:100CB000892B09F46CC00E94EE0181E090E09093D2
:100CC000FF028093FE02AB98AA9AA99A60E00E9464
:100CD000F5018DED91E00E94890260E082E00E94C2
:100CE000F50187EA91E00E9489029FE926E881E008
:100CF000915020408040E1F700C000008091E80260
:100D00009091E90201969093E9028093E802A998F4
:100D100060E082E00E94F50182EB91E00E9489028E
:100D200008950197A1F5653671058CF180916000F9
:100D300090916100892B59F10E94EE011092FF02FF
:100D40001092FE02AB98AA98A99A60E081E00E94F6
:100D5000F50186EE91E00E94890260E082E00E9447
:100D6000F50187EC91E00E9489029FE926E881E085
:100D7000915020408040E1F700C00000A99860E059
:100D800082E00E94F50182ED91E00E9489020895BF
:100D900089B32091060330910703232B09F071C01A
:100DA00088230CF070C08091600090916100892BC5
:100DB00009F469C00E94EE0160E081E00E94F50143
:100DC00084E192E00E94890281E090E09093070321
:100DD00080930603C698C79A60E082E00E94F501FE
:100DE00080EF91E00E9489022FE986E891E021508E
:100DF00080409040E1F700C00000C79860E082E0CA
:100E00000E94F50180E092E00E948902089580919D
:100E1000600090916100892BB1F10E94EE0160E0C9
:100E200081E00E94F50180E192E00E948902109227
:100E3000070310920603C69AC79A60E082E00E94F8
:100E4000F5018DE192E00E9489028091E602909185
:100E5000E70201969093E7028093E6022FE986E885
:100E600091E0215080409040E1F700C00000C79819
:100E700060E082E00E94F5018DE292E00E9489022A
:100E80000895882324F6089589B38074209104037B
:100E900030910503232B09F042C0882309F441C097
:100EA0000E949802892BE9F50E94EE0160E081E042
:100EB0000E94F5018DE392E00E94890281E090E0BA
:100EC0009093050380930403C29A8091E402909169
:100ED000E50201969093E5028093E40283EC99E0A9
:100EE0000197F1F700C0000008950E949802892B35
:100EF000C1F40E94EE0160E081E00E94F5018BE404
:100F000092E00E9489021092050310920403C29895
:100F100083EC99E00197F1F700C000000895882361
:100F200021F3089589B38072209102033091030365
:100F3000232B09F042C0882309F441C00E94980283
:100F4000892BE9F50E94EE0160E081E00E94F50145
:100F50008AE592E00E94890281E090E09093030389
:100F600080930203C29A8091E2029091E30201967B
:100F70009093E3028093E20283EC99E00197F1F70A
:100F800000C0000008950E949802892BC1F40E94BD
:100F9000EE0160E081E00E94F50187E692E00E94A8
:100FA00089021092030310920203C29883EC99E025
:100FB0000197F1F700C000000895882321F30895F8
:100FC000DF92EF92FF920F931F93CF93DF9389B33A
:100FD00031E020E0982F9870D92E83FF30E0832FE6
:100FE000922FB09B05C06894EE24E1F8F12C02C06A
:100FF000E12CF12CCC9B03C004E010E002C000E027
:1010000010E08E0D9F1DEC01C00FD11F8091FC02DE
:101010009091FD02C817D90709F457C0809160006C
:1010200090916100892B09F450C02097B1F10E9482
:10103000EE0160E081E00E94F50185E792E00E9408
:10104000890260E082E00E94F501012BA9F183E8AA
:1010500092E00E948902EF2891F186E892E00E94D6
:101060008902D11007C00FC088E892E00E9489026F
:10107000DD2049F08BE892E00E94890204C08DE8EF
:1010800092E00E9489028091E0029091E102019633
:101090009093E1028093E0020AC00E94EE0160E0BA
:1010A00081E00E94F50185E992E00E948902D093D7
:1010B000FD02C093FC0209C0EF2821F0D5CFD1106A
:1010C000D9CFE1CFDD20F9F2DACFDF91CF911F91B7
:1010D0000F91FF90EF90DF9008950E94EE0160E085
:1010E00081E00E94F50185EA92E00E94890281E098
:1010F00090E090936100809360001092F302109250
:10110000F20287EA91E60197F1F700C00000089526
:101110000E94EE0160E081E00E94F5018FEA92E01A
:101120000E94890210926100109260001092F302F6
:101130001092F20287EA91E60197F1F700C00000F1
:101140000895CF93DF93CDB7DEB72A970FB6F89403
:10115000DEBF0FBECDBF843691053CF089EB92E037
:101160000E94890285E090E01CC08A30910584F0DD
:101170006AE070E00E94550C605D6983805D8A833F
:101180001C82CE0101960E94890283E090E009C092
:10119000805D89831A82CE0101960E94890282E0D5
:1011A00090E02A960FB6F894DEBF0FBECDBFDF9158
:1011B000CF910895CF92DF92EF92FF920F931F93FA
:1011C000CF93DF93CDB7DEB7C85CD1090FB6F894E3
:1011D000DEBF0FBECDBF8091F0029091F1029A83E5
:1011E00089838091EE029091EF029C838B838091A2
:1011F000EC029091ED029E838D838091EA029091A2
:10120000EB0298878F838091E8029091E9029A8798
:1012100089878091E6029091E7029C878B87809175
:10122000E4029091E5029E878D878091E202909181
:10123000E302988B8F878091E0029091E1029A8B74
:10124000898B84EBE2E6F0E0DE01559601900D9289
:101250008A95E1F70E94EE0160E081E00E94F501CD
:101260008FEB92E00E94890287EA91E60197F1F7FD
:1012700000C000007E0195E1E90EF11C8E010F5FB8
:101280001F4F6E01E3E1CE0ED11C0E94EE0160E023
:1012900081E00E94F501C7010E94890260E082E0BE
:1012A0000E94F501F801819191918F010E94A1089E
:1012B000682F82E00E94F5018AEC92E00E94890288
:1012C00087EA91E60197F1F700C0000094E1E90E8A
:1012D000F11C0C151D05C9F6C853DF4F0FB6F89465
:1012E000DEBF0FBECDBFDF91CF911F910F91FF9059
:1012F000EF90DF90CF9008950E94EE0160E081E0D2
:101300000E94F50185ED92E00E9489021092610031
:101310001092600081E090E09093F3028093F202DB
:1013200087EA91E60197F1F700C00000089583E392
:1013300089B910BC86E880BD80E98AB908955F9BB1
:10134000FECF8CB108951F920F920FB60F92112409
:101350002F933F934F935F936F937F938F939F93BD
:10136000AF93BF93CF93DF93EF93FF930E949F09B7
:10137000D82F0E949F09C82F0E949F0990E02C2F10
:1013800030E02D0F311D82179307E9F4D434D9F4DE
:10139000C43319F40E946D0816C0C03319F40E94BA
:1013A000880811C0C63319F40E94DA080CC0C23391
:1013B00019F40E947C0907C0C13111F4A89803C038
:1013C000C23209F4A89AFF91EF91DF91CF91BF91BA
:1013D000AF919F918F917F916F915F914F913F91CD
:1013E0002F910F900FBE0F901F901895A89A789488
:1013F00008951ABA8EEF87BB8FEF84BB82EF81BB53
:101400000E9412020E94F6090E94970978940E9495
:10141000D9030E9488040E9459030E94F8040E9484
:1014200094050E942E060E94C8060E9444070E944E
:1014300092070E94E007EBCF5058BB27AA270E94D3
:10144000340A0C94850B0E94770B38F00E947E0BB7
:1014500020F039F49F3F19F426F40C94740B0EF429
:10146000E095E7FB0C946E0BE92F0E94960B58F366
:10147000BA17620773078407950720F079F4A6F579
:101480000C94B80B0EF4E0950B2EBA2FA02D0B0187
:10149000B90190010C01CA01A0011124FF27591BB9
:1014A00099F0593F50F4503E68F11A16F040A22FBF
:1014B000232F342F4427585FF3CF46953795279530
:1014C000A795F0405395C9F77EF41F16BA0B620B2F
:1014D000730B840BBAF09150A1F0FF0FBB1F661F76
:1014E000771F881FC2F70EC0BA0F621F731F841FB9
:1014F00048F4879577956795B795F7959E3F08F0DF
:10150000B0CF9395880F08F09927EE0F97958795A0
:1015100008950E949D0A0C94850B0E947E0B58F042
:101520000E94770B40F029F45F3F29F00C946E0B7A
:1015300051110C94B90B0C94740B0E94960B68F328
:101540009923B1F3552391F3951B550BBB27AA277C
:1015500062177307840738F09F5F5F4F220F331FB6
:10156000441FAA1FA9F335D00E2E3AF0E0E832D07E
:1015700091505040E695001CCAF72BD0FE2F29D081
:10158000660F771F881FBB1F261737074807AB0753
:10159000B0E809F0BB0B802DBF01FF2793585F4FC8
:1015A0003AF09E3F510578F00C946E0B0C94B90BF9
:1015B0005F3FE4F3983ED4F3869577956795B795AA
:1015C000F7959F5FC9F7880F911D9695879597F9B5
:1015D0000895E1E0660F771F881FBB1F621773072E
:1015E0008407BA0720F0621B730B840BBA0BEE1F43
:1015F00088F7E09508950E94020B6894B1110C944D
:10160000B90B08950E949E0B88F09F5798F0B92F50
:101610009927B751B0F0E1F0660F771F881F991F27
:101620001AF0BA95C9F714C0B13091F00E94B80B06
:10163000B1E008950C94B80B672F782F8827B85F16
:1016400039F0B93FCCF3869577956795B395D9F77F
:101650003EF490958095709561957F4F8F4F9F4F89
:101660000895E89409C097FB3EF490958095709595
:1016700061957F4F8F4F9F4F9923A9F0F92F96E9DE
:10168000BB279395F695879577956795B795F11153
:10169000F8CFFAF4BB0F11F460FF1BC06F5F7F4FF0
:1016A0008F4F9F4F16C0882311F096E911C0772302
:1016B00021F09EE8872F762F05C0662371F096E80B
:1016C000862F70E060E02AF09A95660F771F881FDA
:1016D000DAF7880F9695879597F9089597F99F6798
:1016E00080E870E060E008959FEF80EC08950024AA
:1016F0000A941616170618060906089500240A9477
:1017000012161306140605060895092E0394000CFC
:1017100011F4882352F0BB0F40F4BF2B11F460FF8B
:1017200004C06F5F7F4F8F4F9F4F089557FD9058B4
:10173000440F551F59F05F3F71F04795880F97FB95
:10174000991F61F09F3F79F087950895121613064F
:101750001406551FF2CF4695F1DF08C0161617067E
:101760001806991FF1CF86957105610508940895B3
:10177000E894BB2766277727CB0197F908950E9445
:10178000310C08F48FEF08950E94D70B0C94850B51
:101790000E94770B38F00E947E0B20F0952311F009
:1017A0000C946E0B0C94740B11240C94B90B0E94C6
:1017B000960B70F3959FC1F3950F50E0551F629FF4
:1017C000F001729FBB27F00DB11D639FAA27F00D9A
:1017D000B11DAA1F649F6627B00DA11D661F829FC1
:1017E0002227B00DA11D621F739FB00DA11D621FA6
:1017F000839FA00D611D221F749F3327A00D611DC3
:10180000231F849F600D211D822F762F6A2F1124A4
:101810009F5750409AF0F1F088234AF0EE0FFF1FD7
:10182000BB1F661F771F881F91505040A9F79E3F2E
:10183000510580F00C946E0B0C94B90B5F3FE4F3F0
:10184000983ED4F3869577956795B795F795E79584
:101850009F5FC1F7FE2B880F911D9695879597F98D
:101860000895990F0008550FAA0BE0E8FEEF161631
:101870001706E807F907C0F012161306E407F50784
:1018800098F0621B730B840B950B39F40A2661F0F8
:10189000232B242B252B21F408950A2609F4A1409B
:1018A000A6958FEF811D811D089597FB072E16F4D5
:1018B000009407D077FD09D00E94690C07FC05D081
:1018C0003EF4909581959F4F0895709561957F4F57
:1018D0000895AA1BBB1B51E107C0AA1FBB1FA61777
:1018E000B70710F0A61BB70B881F991F5A95A9F7C9
:0E18F00080959095BC01CD010895F894FFCF2E
:1018FE00010046616E205475726E6564204F6E2035
:10190E002020000000004143205475726E65642053
:10191E004F6E20202020000000004C696768742064
:10192E005475726E6564204F6E2000000000446F87
:10193E006F722031204F70656E656420202000008C
:10194E000000446F6F722032204F70656E65642008
:10195E0020200000000057696E646F7773204F706F
:10196E00656E656420200000000046697265205790
:10197E0061726E696E6720202020000000004761B2
:10198E0073204C65616B205761726E696E67000043
:10199E00000041697220506F6C6C75746564202074
:1019AE0020200000000054656D703A4C2C204875C4
:1019BE006D693A47004143204F46460054656D70AD
:1019CE003A0048002C2048756D693A0042004143A8
:1019DE00204F4E0054656D7065726174757265208E
:1019EE00486967680046414E204F4E200054656D91
:1019FE007065726174757265204C6F770046414E4A
:101A0E00204F4646004E696768742054696D650024
:101A1E004C6967687473204F4E0044617920546995
:101A2E006D65004C6967687473204F464600444FDD
:101A3E004F522031203A004F50454E494E472E2EE0
:101A4E002E004F50454E454E442E2E2E00444F4FE5
:101A5E00522031203A2000434C4F53494E472E2EF0
:101A6E002E00434C4F5345442E2E2E2000444F4FF4
:101A7E005220323A2000444F4F522032203A20005A
:101A8E0057696E646F777320636C6F73696E67004E
:101A9E0057696E646F777320636C6F7365642E0085
:101AAE004E6F74205261696E696E672E0057696EB3
:101ABE00646F7773204F70656E696E670057696E3D
:101ACE00646F7773204F70656E65642E0046697281
:101ADE006520416C657274204F6E004669726520F8
:101AEE00416C657274204F66660047617320416CCD
:101AFE00657274204F6E0047617320416C6572747D
:101B0E00204F66660041697220706F6C6C7574654B
:101B1E00642100434F002C204832002C20416C637E
:101B2E006F686F6C004E6F2041697220506F6C753C
:101B3E0074696F6E00537461727420557021005376
:101B4E00687574446F776E21004D616E7920005375
:101B5E00686F772053746174210054696D6573202A
:101B6E002020202000536C65657020534D2100000D
:00000001FF
